:020000040800F2
:10000000E006002089010008090B000869070008C4
:10001000050B0008C5040008911800080000000046
:10002000000000000000000000000000651400084F
:10003000BB050008000000008111000851150008F0
:10004000A3010008A3010008A3010008A301000800
:10005000A3010008A3010008A3010008A3010008F0
:10006000A3010008A3010008A3010008C9040008B7
:10007000A3010008A3010008A3010008A3010008D0
:10008000A3010008A3010008A3010008A3010008C0
:10009000A3010008A3010008A3010008A3010008B0
:1000A000A3010008A3010008A3010008A3010008A0
:1000B000A3010008A3010008A3010008A301000890
:1000C000A3010008A3010008A3010008A301000880
:1000D000A3010008A3010008A3010008A301000870
:1000E000A3010008A3010008A301000800F002F822
:1000F00000F03AF80AA090E8000C82448344AAF188
:100100000107DA4501D100F02FF8AFF2090EBAE885
:100110000F0013F0010F18BFFB1A43F0010318473B
:10012000782E0000982E0000103A24BF78C878C1BD
:10013000FAD8520724BF30C830C144BF04680C60ED
:10014000704700000023002400250026103A28BF35
:1001500078C1FBD8520728BF30C148BF0B60704739
:100160001FB51FBD10B510BD00F06EF81146FFF7AA
:10017000F7FF01F0A5FD00F0A0F803B4FFF7F2FFD0
:1001800003BC01F047FC00000948804709480047CC
:10019000FEE7FEE7FEE7FEE7FEE7FEE7FEE7FEE737
:1001A000FEE7FEE704480549054A064B7047000094
:1001B00069150008ED000008E0000020E0060020BE
:1001C000E0020020E0020020704700000FB4044964
:1001D00010B503AA029800F009F810BC5DF814FBF2
:1001E0001C0000207047704770477047074B70B580
:1001F0000D467B4400F011F80446284600F020F834
:1002000010B14FF0FF3070BD204670BD331A0000B2
:1002100001694A1C02610878704700B58FB0CDE9CA
:1002200001310021059105497944CDE903101146BA
:10023000684600F02EF80FB000BD0000E5FFFFFF9C
:10024000007B00F080007047754600F03FF8AE4636
:1002500005006946534620F00700854618B020B5D2
:10026000FFF7A0FFBDE820404FF000064FF0000769
:100270004FF000084FF0000B21F00701AC46ACE84E
:10028000C009ACE8C009ACE8C009ACE8C0098D46BB
:1002900070472DE9F04106460024D6E90170F56863
:1002A0008046304603E04146B847641C3046A847C4
:1002B0000028F8D12046BDE8F08110B50446AFF320
:1002C00000802046BDE81040FFF757BF0048704748
:1002D0008000002021B1826842F00102826003E0C8
:1002E000826822F001028260704710B501F0ECFBD9
:1002F00001F092FB00F00CF810BD21B1826842F4CD
:100300008072826003E0826822F4807282607047AB
:1003100000B58BB00121084600F040FF0420039097
:10032000002002900A90124801904FF480600790DC
:1003300080200590202008900E480090801506909F
:10034000002004904FF48050099069460A4800F05C
:1003500016F9022000F0DAF801220221064800F026
:1003600005F90121044800F0DFF80BB000BD0000E2
:10037000200000204C2401400800024021B1826886
:1003800042F48012826003E0826822F4801282606C
:100390007047014600208A6802F004020AB1012079
:1003A00000E000207047000030B502460020002326
:1003B00050680F4C20400D790C6844EA0524204316
:1003C000506090680B4C2040D1E902542C434D7989
:1003D00044EA450420439060D06A20F470000C7C0D
:1003E000641EE4B2234340EA0350D06230BD0000F3
:1003F000FFFEF0FFFDF7F1FFF0B504460D460020CB
:100400000021092D11DDE068A5F10A0606EB46077B
:10041000072606FA07F18843A5F10A0606EB460609
:1004200003FA06F10843E0600CE0206905EB45079C
:10043000072606FA07F1884305EB450603FA06F19D
:1004400008432061072A0FDA606B561E06EB860709
:100450001F2606FA07F18843561E06EB860605FAA4
:1004600006F10843606322E00D2A0FDA206BD61FE5
:1004700006EB86071F2606FA07F18843D61F06EB10
:10048000860605FA06F10843206310E0E06AA2F14F
:100490000D0606EB86071F2606FA07F18843A2F130
:1004A0000D0606EB860605FA06F10843E062F0BD8C
:1004B000816841F0080181607047816841F0040162
:1004C0008160704700BFFEE710B50024022000F0F5
:1004D00037F8012815D10B4801F008FB0A4801F054
:1004E0003FFB094800F0FAFB0446202C03D1022010
:1004F00000F0A8FA02E0042000F072FA022000F0F6
:1005000005F810BD200000206700002000F0805199
:1005100011B10349086001E00249486070470000DA
:10052000040402400000024021B1026842F00102CE
:10053000026004E002684FF6FE731A4002607047E2
:1005400001460020002201F0805313B1054B1A68C8
:1005500001E0054B1A6802EA01030BB1012000E03B
:100560000020704700040240000002401AB10368F6
:100570000B43036002E003688B430360704710B5D0
:100580000022026847F6F0739A430C6A8B68234393
:100590000C6923434C6923438C692343CC6923436F
:1005A0004C6A23438C6A23431A430260CB6843603E
:1005B0000B6883604B68C36010BD704710B5194865
:1005C00000791849C97840EA01101749097888422A
:1005D00009D000F05DFC134800791249C97840EA5F
:1005E0000110114908700F48C07830B902230F4A32
:1005F0000321084600F0EAFC09E00A48C078012817
:1006000005D102230A4A0321084600F0DFFC054811
:100610000079012805D10323064A0221062000F0B3
:10062000D5FC10BD5C0000202F000020D828000859
:1006300018290008582900082DE9F0410246002534
:100640000026002000230024002791F803C00CF0AE
:100650000F0591F803C00CF0100CBCF1000F03D093
:1006600091F802C04CEA050591F800C0BCF1000FFA
:1006700031D0146800202BE04FF0010C0CFA00F38D
:10068000B1F800C00CEA03069E4220D183004FF06F
:100690000F0C0CFA03F7BC4305FA03FC4CEA040404
:1006A00091F803C0BCF1280F06D14FF0010C0CFAF1
:1006B00000FCC2F814C00AE091F803C0BCF1480F76
:1006C00005D14FF0010C0CFA00FCC2F810C0401C20
:1006D0000828D1D31460B1F800C0BCF1FF0F34DD9D
:1006E000546800202EE000F1080C4FF0010808FAD1
:1006F0000CF3B1F800C00CEA03069E4221D183003E
:100700004FF00F0C0CFA03F7BC4305FA03FC4CEA5C
:10071000040491F803C0BCF1280F05D100F1080CC6
:1007200008FA0CF8C2F8148091F803C0BCF1480F25
:1007300007D100F1080C4FF0010808FA0CF8C2F8D4
:100740001080401C0828CED35460BDE8F0810246DA
:10075000002093680B400BB1012000E0002070479F
:10076000416170470161704700BFFEE708B5012194
:10077000082000F033FD4FF40050ADF800001020C9
:100780008DF8030003208DF8020069460F48FFF73B
:1007900053FF4FF48040ADF8000010208DF80300A7
:1007A00003208DF8020069460848FFF745FF0A203C
:1007B00001F018FA4FF400510448FFF7D3FF4FF44B
:1007C00080410248FFF7CEFF08BD0000000C014049
:1007D00070B50446082500F08BFD1DE04FF4005075
:1007E0001249086000F08EF804F0800028B14FF440
:1007F00080400E49091F086003E04FF480400B4918
:1008000008606006040E00F07DF84FF400500749C0
:10081000091F086000F076F8281EA5F10101CDB28D
:10082000DCD14FF400500149086070BD140C014048
:1008300010B500F05DFD4FF400501449086000F061
:1008400061F84FF480401149091F086000F040FD35
:1008500000F058F84FF400500C49091F086000F0F0
:1008600051F80A480C380068C0F3803028B14FF4C2
:10087000005006490860002010BD4FF400500349A5
:10088000086000F03FF80120F6E70000140C01407A
:1008900010B500F02DFD4FF40050094908604000EC
:1008A000086000F02FF84FF480400549091D0860EA
:1008B00000F028F84FF400500149091D086010BDF0
:1008C000100C014010B500F013FD4FF400500C491E
:1008D000086000F017F84FF480400949086000F004
:1008E00011F84FF400500649091F086000F00AF89B
:1008F0004FF480400249091F086000F003F810BD62
:10090000140C01407047000008B50121102000F0D0
:1009100065FC0121082000F061FC4FF48040ADF837
:10092000000048208DF8030003208DF8020069467E
:100930000848FFF781FE4FF48050ADF800004820D2
:100940008DF8030003208DF8020069460248FFF786
:1009500073FE08BD00100140000C014010B50446B4
:1009600014B101201B4908701A48007808B34FF4ED
:1009700080411948FFF7EBFE28B14FF4805117482A
:10098000FFF7E5FEA8B9052001F02CF90020114978
:1009900008704FF480411048FFF7D9FE08B90120D4
:1009A00010BD4FF480510D48FFF7D1FE80B90220F1
:1009B000F6E74FF480410848FFF7C9FE012807D148
:1009C00001030648FFF7C3FE012801D10149087061
:1009D0000020E5E73A00002000100140000C014033
:1009E00010B50446154800880A2810DA1348008814
:1009F000401C12490880084600880A2807D1104880
:100A00000088401C0E49088000200C4908800C48D2
:100A1000008803280EDB0A48008805280ADC0848FD
:100A20000088052802D1002005490880204600F0F2
:100A300009F801E000F05CF810BD0000180000208B
:100A40001A00002010B5044600F052F8082C2ED2EF
:100A5000DFE804F02D04080D12181E258020164929
:100A6000086027E04FF480701349086022E04FF4DB
:100A70000070114908601DE080200F4908604000A7
:100A8000086017E080200C4908608000086011E0D1
:100A90004FF4807008490860400008600AE0802038
:100AA00005490860400008604000086002E000F06E
:100AB0001FF800BF00BF10BD140C014008B5012194
:100AC000082000F08BFB10208DF8030003208DF828
:100AD00002004FF46070ADF8000069460348FFF76C
:100AE000ABFD0120FFF7AEFF08BD0000000C014088
:100AF000802003490860400008604000086070479B
:100B0000100C014000BFFEE7704700001FB510A1A8
:100B100003C9CDE90201052202A9302000F012F933
:100B200005226946102000F063F8002406E01DF855
:100B30000400A52800D003E0601CC4B2052CF6DB3D
:100B400000BF052C02D0012004B010BD0020FBE73F
:100B5000A5A5A5A5A500000008B50121082000F065
:100B60003DFB4FF48060ADF8000010208DF80300CD
:100B700001208DF8020069461B48FFF75DFD012149
:100B8000042000F02BFB1020ADF800008DF80300CE
:100B900001208DF8020069461448FFF74DFD4FF41F
:100BA00080611148FFF7DEFD10211048FFF7DAFDE4
:100BB0000121082000F012FB0120ADF800004820C0
:100BC0008DF8030001208DF8020069460648FFF702
:100BD00033FD4FF480610448FFF7C2FD1021034844
:100BE000FFF7C0FD08BD0000000C014000080140F7
:100BF0002DE9F04107460D46164610210B48FFF738
:100C0000AFFD384600F0CCFB8046002405E0FF2015
:100C100000F0C6FB2855601CC4B2B442F7DB1021BB
:100C20000248FFF79FFD4046BDE8F0810008014003
:100C300070B5044610210848FFF792FD204600F0E9
:100C4000AFFBFF2000F0ACFB054610210248FFF788
:100C500089FD284670BD00000008014010B54FF422
:100C600080611C48FFF77CFD0321084600F08AF8EC
:100C700005221949302000F065F8052216492A207E
:100C800000F060F806213D2000F07CF801213C20B6
:100C900000F078F80121212000F074F801212220D1
:100CA00000F070F80C48401E8179252000F06AF8A9
:100CB0001A21242000F066F80721262000F062F8AF
:100CC0000E21202000F05EF84FF480610148FFF70C
:100CD00049FD10BD000C01403D00002070B50546E7
:100CE0004FF480611648FFF73BFD0B222946A020F8
:100CF00000F028F84FF480611148FFF733FD00BF82
:100D000001210F48FFF723FD0028F9D10720FFF745
:100D10008FFF04462146272000F034F800F09EF8AB
:100D200004F0100028B1FF21E12000F02BF8102082
:100D300070BD04F0200008B12020F9E7FF20F7E79C
:100D4000000C01402DE9F04107460C4615461021E4
:100D50000B48FFF705FD384600F022FB80460026D1
:100D600005E014F8010B00F01BFB701CC6B2AE428C
:100D7000F7DB10210248FFF7F5FC4046BDE8F081A3
:100D80000008014070B505460C4610210748FFF7E2
:100D9000E7FC284600F004FB0646204600F000FB76
:100DA00010210248FFF7DEFC304670BD000801400C
:100DB00070B5002100230F22C47804B3154C2468B9
:100DC00004F4E064C4F5E064210AC1F10403CA40FC
:100DD000447804FA03F184781440214309010E4C4D
:100DE0000678A155047804F01F050124AC4005786D
:100DF0006D11AD0005F1E025C5F8004109E004786A
:100E000004F01F050124AC40044D0678761145F826
:100E1000264070BD0CED00E000E400E080E100E061
:100E200002490143024A1160704700000000FA05C0
:100E30000CED00E008B54FF4A060FFF7F1FF0B20C8
:100E40008DF8000000208DF8010001208DF80200CF
:100E50008DF803006846FFF7ABFF08BD10B50B2205
:100E600009496120FFF7C4FE07480078AA2807D186
:100E70000548807AAC2803D101200449087002E0BB
:100E800000200249087010BD5C0000202E000020E8
:100E900070B5002418E004F1B000002100F08AF8D9
:100EA0000021084600F086F80021102000F082F8AA
:100EB000002505E00121002000F07CF8681CC5B287
:100EC000802DF7DB601CC4B2082CE4DB70BD10B5CC
:100ED000FFF74CFCC82000F085FE0021AE2000F09A
:100EE00069F80021084600F065F80021102000F0A4
:100EF00061F80021402000F05DF80021B02000F0F2
:100F000059F80021812000F055F80021082000F058
:100F100051F80021A12000F04DF80021A62000F09A
:100F200049F80021A82000F045F800213F2000F0FA
:100F300041F80021C82000F03DF80021D32000F046
:100F400039F80021084600F035F80021D52000F0DE
:100F500031F80021802000F02DF80021D82000F089
:100F600029F80021052000F025F80021D92000F003
:100F700021F80021F12000F01DF80021DA2000F016
:100F800019F80021122000F015F80021DB2000F0F4
:100F900011F80021302000F00DF800218D2000F024
:100FA00009F80021142000F005F80021AF2000F01E
:100FB00001F810BD70B504460D461DB1E0B200F059
:100FC00013FD02E0E0B200F0F9FC70BD2DE9FE4F28
:100FD00004460D4692461E46002002900190009065
:100FE0007019082804DBC5F10800C0B2029000E0C7
:100FF000029627463BE007F1B0000021FFF7DAFF39
:1010000000210846FFF7D6FF05F110000021FFF789
:10101000D1FFDDF8008016E0381B00F0FF090BE07F
:101020000AEB481010F809B001215846FFF7C2FF3B
:1010300009F1020000F0FF09B9F1200FF0DB08F11F
:10104000010000F0FF0802988045E5DB0198401C94
:10105000C0B201900198022807D17019082804DB5A
:10106000A01CC4B20296CDF80080781CC7B2A01CA8
:10107000B842C0DCBDE8FE8F10B53648007836496E
:10108000097840EA011035490978884209D0FFF70C
:10109000FFFE304800783049097840EA01102F49B6
:1010A00008702D48007801280FD12A48007860B9CF
:1010B00003232B4A02210020FFF788FF0923294A36
:1010C00000210320FFF782FF42E022480078012838
:1010D0000CD10323244A02210020FFF777FF0923C4
:1010E000224A00210320FFF771FF31E01A480078FF
:1010F00001280CD117480078022808D104231C4A83
:1011000002210020FFF762FFFFF758FA20E01248A3
:10111000007880B90F48007802280CD00623154AC1
:1011200001210020FFF752FF1023134A0021032062
:10113000FFF74CFF0CE00848007848B905480078F4
:10114000022805D104230D4A02210020FFF73EFFAB
:1011500010BD00003C0000202E00002030000020C8
:10116000F8270008582B0008782A0008782C000877
:10117000D82A0008B8290008982D00085828000827
:101180007047000001460020034A506820F44040A8
:1011900008435060704700000010024029B1064A21
:1011A00052690243044B5A6104E0034A5269824384
:1011B000014B5A61704700000010024029B1064AF5
:1011C000D2690243044BDA6104E0034AD2698243E4
:1011D000014BDA61704700000010024029B1064A55
:1011E00092690243044B9A6104E0034A9269824384
:1011F000014B9A61704700000010024030B5002199
:101200000022002400232D4D6D6805F00C0121B152
:10121000042905D0082923D105E0294D056022E0E5
:10122000274D05601FE0254D6D6805F47012234DB4
:101230006D6805F48034022505EB92421CB9214DFE
:10124000554305600BE01D4D6D6805F400351DB17B
:101250001C4D5543056002E0194D5543056002E001
:10126000174D056000BF00BF144D6D6805F0F0011B
:101270000909154D6B5C0568DD4045600F4D6D68D3
:1012800005F4E061090A104D6B5C4568DD4085603E
:101290000A4D6D6805F46051C90A0B4D6B5C4568D9
:1012A000DD40C560054D6D6805F44041890B074D73
:1012B0006B5CC568B5FBF3F5056130BD00100240FD
:1012C00000127A0000093D0048000020580000206C
:1012D00008B54FF48040ADF8000004208DF80300FD
:1012E00069460248FFF7A8F908BD0000000C01405C
:1012F00008B54FF48040ADF8000010208DF80300D1
:1013000003208DF8020069460148FFF795F908BDF2
:10131000000C014000B587B001210420FFF75EFFFB
:1013200001210803FFF75AFF01210846FFF756FF86
:10133000E020ADF8040018208DF8070001208DF89A
:10134000060001A91448FFF777F94FF48270ADF851
:101350000A000020ADF80800ADF80C00ADF80E0052
:10136000ADF810004FF40070ADF812001020ADF889
:1013700014000020ADF816000720ADF8180002A9EF
:10138000064800F051F80121044800F033F8FF202E
:1013900000F006F807B000BD000801400030014031
:1013A00070B50546002405E0601CC4B2C82C01DD00
:1013B000002070BD02210E4800F028F80028F3D06C
:1013C00029460B4800F02EF8002405E0601CC4B24A
:1013D000C82C01DD0020ECE70121054800F016F8DB
:1013E0000028F3D0024800F01AF8C0B2E1E700008C
:1013F0000030014021B1028842F04002028004E046
:1014000002884FF6BF731A400280704702460020E0
:1014100013890B400BB1012000E00020704701460A
:10142000888970478181704710B50022028802F4D4
:1014300041520B884C8823438C882343CC88234318
:101440000C8923434C8923438C892343CC89234330
:101450001A430280838B4FF2FF74234083830B8AED
:10146000038210BD704710B500F002F810BD0000F7
:101470000CB50020019000903348006840F48030A3
:101480003149086000BF3048006800F40030009027
:101490000198401C0190009818B90198B0F5A06F10
:1014A000F1D12948006800F4003010B1012000900B
:1014B00001E0002000900098012843D123480068F3
:1014C00040F01000214908600846006820F0030041
:1014D00008600846006840F0020008601A4840684A
:1014E000194948600846406848600846406840F42A
:1014F000806048600846406820F47C1048600846D8
:10150000406840F4E81048600846006840F0807089
:10151000086000BF0C48006800F000700028F9D097
:101520000948406820F003000749486008464068C1
:1015300040F00200486000BF0348406800F00C0023
:101540000828F9D10CBD0000001002400020024024
:101550000448006820B103480068401E0149086043
:10156000704700001400002010B51348006840F0D8
:1015700001001149086008464068104908400E49BA
:101580004860084600680E4908400B490860084654
:10159000006820F4802008600846406820F4FE00BF
:1015A00048604FF41F008860FFF75DFF4FF0006058
:1015B0000449086010BD0000001002400000FFF860
:1015C000FFFFF6FE08ED00E021B1028842F0800244
:1015D000028004E002884FF67F731A400280704751
:1015E00021B1028842F00102028004E002884FF635
:1015F000FE731A400280704770B500220023002459
:10160000058C4EF6FF7635400584038C8488828BEA
:1016100048F6FF752A404FF6FF452A400D884FF6E1
:10162000FF7606EA05252A434DF6FF752B400D8906
:1016300006EA05352B434D8806EA05352B430B4D4D
:10164000A84202D00A4DA84208D14BF6FF752C40A3
:101650008D894FF6FF7606EA85152C4384808283B8
:10166000CD88A0F84050038470BD0000002C0140DC
:10167000003401400A460021818B4FF2FF7319406C
:101680004FF6FF7303EA022319438183704700007A
:10169000002202881D4B98420ED01D4B98420BD061
:1016A000B0F1804F08D01B4B984205D01A4B98429E
:1016B00002D01A4B984204D14FF68F731A404B88D0
:1016C0001A43174B984207D0164B984204D04FF656
:1016D000FF431A40CB881A4302808B8883850B888E
:1016E00003850A4B98420BD0094B984208D00E4B09
:1016F000984205D00D4B984202D00D4B984201D133
:101700000B7A03860123838270470000002C01407E
:10171000003401400004004000080040000C00407C
:10172000001000400014004000400140004401400F
:101730000048014021B1828942F40052828104E0D4
:1017400082894DF6FF731A4082817047024600205D
:10175000B1F5007F00D100BF13880B400BB1012011
:1017600000E000207047F0B5034600240026002565
:10177000002040F66A17B94200D100BF1846C1F3F5
:10178000421401F01F06012707FA06F5012C01D1CA
:101790000C3004E0022C01D1103000E014301AB1FA
:1017A00007682F43076002E00768AF430760F0BD9A
:1017B0002DE9F04786B005460E460024A24600BF3C
:1017C000A1460027B08900B100BF2F462C8A4CF6F5
:1017D000FF700440F08804432C82AC894EF6F3106D
:1017E0000440B08831890843718908430443AC81BF
:1017F000AC8A4FF6FF400440B0890443AC8201A894
:10180000FFF7FCFC1F48874202D1DDF810A001E081
:10181000DDF80CA0A88900F4004040B10AEBCA0032
:1018200000EB0A1031684900B0FBF1F807E00AEB61
:10183000CA0000EB0A1031688900B0FBF1F864209F
:10184000B8FBF0F004012009642101FB1089A8898C
:1018500000F4004040B1322000EBC900B0FBF1F0D1
:1018600000F00700044308E0322000EB0910642177
:10187000B0FBF1F000F00F0004432C8106B0BDE88E
:10188000F087000000380140C1F3080282807047F1
:1018900000BFFEE710B586B00446012144F2050002
:1018A000FFF79CFC4FF40070ADF8140018208DF881
:1018B000170003208DF8160005A91748FEF7BCFE97
:1018C0004FF48060ADF8140004208DF81700032059
:1018D0008DF8160005A91048FEF7AEFE0194002011
:1018E000ADF80800ADF80A00ADF80C00ADF8100036
:1018F0000C20ADF80E0001A90848FFF759FF01229E
:1019000040F225510548FFF72EFF01210348FFF75C
:1019100011FF06B010BD0000000801400038014072
:1019200010B522480078D8B921480088B0F5617F09
:1019300016DD01201D4908701E48007848701D48BA
:1019400041781A4881701B4881781848C17019483D
:10195000C17816480171417841711E201349887180
:1019600013480088642820DA1048007801281CD128
:1019700081021148FEF7F4FE05220C49491C302073
:10198000FFF7E0F905220949491C2A20FFF7DAF997
:10199000064881792520FFF7F5F94FF48061064864
:1019A000FEF7E0FE02200149087010BD3C00002057
:1019B0002800002044000020000C014010B504461F
:1019C000FEF766FF7820FEF703FFFEF731FF0020E9
:1019D000FEF7FEFEFEF72CFF2046FEF7F9FEFEF7AF
:1019E00027FFFEF76FFF10BD10B50446FEF750FF4E
:1019F0007820FEF7EDFEFEF71BFF4020FEF7E8FE25
:101A0000FEF716FF2046FEF7E3FEFEF711FFFEF796
:101A100059FF10BD00BF704700B585B001214802D5
:101A2000FFF7DCFB00208DF8050003904FF4202029
:101A300002900020009004208DF8100001208DF805
:101A4000040069461F48FEF7AFFC01211D48FEF760
:101A500041FC01211B48FEF750FC4FF44040FFF7CA
:101A600091FB0623012200211648FEF7C5FC062340
:101A7000022201211348FEF7BFFC062303220221A4
:101A80001048FEF7B9FC0623042203210D48FEF797
:101A9000B3FC0C48FEF70CFD00BF0A48FEF779FCCA
:101AA0000028FAD10748FEF708FD00BF0548FEF7F9
:101AB00070FC0028FAD101210248FEF75FFC05B056
:101AC00000BD00000024014008B501210420FFF7FB
:101AD00085FB0F20ADF8000000208DF8030069465B
:101AE0000148FEF7A9FD08BD0008014070B5044695
:101AF000608800F095F90646164900F0A5F90546FC
:101B000000F06EF914490880208800F089F9064633
:101B1000124900F099F9054600F062F90E49087182
:101B2000E08800F07DF906460C4900F08DF9054685
:101B300000F056F908498870A08800F071F906464F
:101B4000064900F081F9054600F04AF90249C870DB
:101B500070BD0000910F7A3E28000020740CC83C34
:101B60001D490978012916D1A82101701A4949781F
:101B700041701949897881701749C978C17016492F
:101B80000979017114494979417113498979817140
:101B90008B2181721FE01049097802291BD1A821ED
:101BA00001700E49097841700C49497881700B49E0
:101BB0008978C1700949C978017108490979417169
:101BC00007494978817106498978C17100210172FC
:101BD00041728B21817270473C0000202800002058
:101BE0003200002000B970474FF47A7141430D4A2A
:101BF000116000214FF0E02291611146096941F026
:101C00000101116100BF074909680029FBD14FF0AC
:101C1000E021096921F001014FF0E022116100BFCC
:101C2000E1E700001400002070B504460D4600BF37
:101C300040210548FFF78AFD0028F9D0E1B20248AB
:101C4000FFF722FE204670BD003801400A480068B8
:101C50000A4908600848001F0068486006480838BC
:101C60000068886008460068496808430349896835
:101C70000843034908607047F0F7FF1F7400002015
:101C80004400002010B50120FEF768FE0B490870E3
:101C900008460078012801D1E12048700748007803
:101CA000022802D1C820054988700448007818B974
:101CB000002002494870887010BD000032000020EA
:101CC000FFF752FC00F03CF8FEF7F8FE4FF4E1306D
:101CD000FFF7E0FD16A0FEF779FAFFF7B7FFFFF771
:101CE00019FBFEF739FF05E00120FEF779FE0A2017
:101CF000FFF778FFFEF70AFF0028F5D1FEF7AEFFE9
:101D0000FEF702FEFEF7F1FA00F032F8FFF7DFF817
:101D1000FFF7BEF8FFF78EF86420FFF763FF05E0DA
:101D2000FFF7FEFDFFF7AEFFFFF7A6F9F8E70000AB
:101D30007573617274206973206F6B0D0A00000067
:101D4000094800680949B0FBF1F0401E4FF0E0215E
:101D5000486100208861062008610846006920F07B
:101D600001000861704700000000002040420F00A1
:101D700000B587B001210420FFF720FA0020ADF85C
:101D800016004720ADF810000020ADF8120044F610
:101D90001F60ADF8140004A91048FFF779FC60201B
:101DA000ADF800000020ADF808000120ADF80200F9
:101DB00041F28830ADF8060069460848FFF71CFC80
:101DC00001210648FFF700FC08210448FFF752FCF8
:101DD00001210248FFF704FC07B000BD00080040E5
:101DE000C10DD1F19E0206DB4FEA002343F0004310
:101DF00023FA02F07047004207D54FEA4001B1F1E3
:101E0000FE4F02D24FF00000704710B500F09DF871
:101E100049922480002070476FEA2000704700003C
:101E2000B0FA80F310FA03F2C3F19D030AD0D9058A
:101E300001EB1220530638BF704700F1010008BFC4
:101E400020F00100704700004FF47F0C1CEAD01214
:101E50001EBF1CEAD11392EA0C0F93EA0C0F00F09C
:101E6000478090EA010F48BF42F480724FF0004C67
:101E70004CEA00204CEA012102EB0302A0FB011313
:101E8000A2F50002002918BF43F001035B0028BF40
:101E90004FEA330342EB22425FEA132C4CEBC25071
:101EA0002EBFBCEB436FB2F57C0F70474FEA036C5B
:101EB000BCF1004F08BF20F00100B2F57C0F38BF25
:101EC00070470BD582F0FF0212F5803FC8BF704704
:101ED00000F1C040D8BF00F00040704700F5000C92
:101EE0005FEA4C0C48BF7047B0F1C04000F073B8D7
:101EF00090EA010F0CEAD11348BF42F480726245A8
:101F000038BF634504D280EA010000F0004070470A
:101F100010B500F01AF800BF8900013E00F007B8C4
:101F200000F009B85FEA410C5FEA1C6C08D080EA57
:101F3000010000F050B85FEA400C5FEA1C6CF6D17B
:101F40004FF00040A0F5800070470EF1020E2EF019
:101F5000030E5EF8044B244204D44FEA4102B2F16E
:101F60007F4F11D84FEA4003B3F17F4F0CD80ED109
:101F70004FEAD07CB2F17F4F0CEB4C0C0CF1020C11
:101F800008BF4CEBD17C04E04FF0080C01E04FEAB5
:101F9000D17C0CEB4C0324FA03F404F00704B4F1F5
:101FA000040C06D20EEB840CBDE810404CF0010C82
:101FB0006047DFE80CF0070802024FF00040A0F590
:101FC000800010BD0846420018BFD2F1807288BF61
:101FD00000F0004010BDFF2141EAD050C00570471D
:101FE0000000000000000000002F000000000700BB
:101FF000070000147F147F1400242A7F2A12006235
:1020000064081323003649552250000005030000E0
:1020100000001C224100000041221C000014083E68
:1020200008140008083E0808000000A0600000082E
:102030000808080800006060000000201008040282
:10204000003E5149453E0000427F40000042615140
:102050004946002141454B31001814127F100027DA
:1020600045454539003C4A4949300001710905039D
:1020700000364949493600064949291E00003636CE
:102080000000000056360000000814224100001431
:10209000141414140000412214080002015109060E
:1020A00000324959513E007C1211127C007F49498F
:1020B0004936003E41414122007F4141221C007FC0
:1020C00049494941007F09090901003E4149497ACE
:1020D000007F0808087F0000417F41000020404148
:1020E0003F01007F08142241007F40404040007FB4
:1020F000020C027F007F0408107F003E4141413EF8
:10210000007F09090906003E4151215E007F09193F
:1021100029460046494949310001017F0101003F3C
:102120004040403F001F2040201F003F4038403FBC
:102130000063140814630007087008070061514920
:10214000454300007F41410000552A552A550000B3
:1021500041417F0000040201020400404040404031
:10216000000001020400002054545478007F4844C9
:10217000443800384444442000384444487F003800
:102180005454541800087E0901020018A4A4A47C29
:10219000007F080404780000447D400000408084F3
:1021A0007D00007F102844000000417F4000007C3B
:1021B00004180478007C0804047800384444443847
:1021C00000FC242424180018242418FC007C080493
:1021D000040800485454542000043F444020003C6C
:1021E0004040207C001C2040201C003C4030403CF3
:1021F000004428102844001CA0A0A07C0044645483
:102200004C441414141414140000000000000000C6
:102210000000000000000000000000F800000000C6
:10222000000000333000000000100C06100C060007
:10223000000000000000000040C07840C07840006E
:10224000043F04043F040400007088FC08300000D0
:10225000001820FF211E0000F0F8F000E018000038
:1022600000211C031E211E0000F0088870000000E1
:102270001E2123241927211010160E000000000033
:102280000000000000000000000000E01804020050
:10229000000000071820400000020418E0000000C1
:1022A0000040201807000000404080F080404000BF
:1022B0000202010F01020200000000F00000000015
:1022C0000101011F010101000000000000000000E9
:1022D00080B070000000000000000000000000005E
:1022E00000010101010101010000000000000000E7
:1022F0000030300000000000000000008060180482
:10230000006018060100000000E010080810E0005E
:10231000000F102020100F00001010F80000000027
:102320000020203F2020000000700808088870006E
:1023300000302824222130000030088888483000EE
:102340000018202020110E000000C02010F800000E
:1023500000070424243F240000F8088888080800A7
:102360000019212020110E0000E0108888180000BC
:10237000000F112020110E0000380808C83808008E
:102380000000003F0000000000708808088870000E
:10239000001C222121221C0000E010080810E0008F
:1023A0000000312222110F00000000C0C000000018
:1023B000000000303000000000000080000000003D
:1023C0000000806000000000000080402010080035
:1023D00000010204081020004040404040404000FE
:1023E00004040404040404000008102040800000D9
:1023F0000020100804020100007048080808F000DE
:102400000000003036010000C030C828E810E000AD
:102410000718272423140B000000C038E000000038
:10242000203C23020227382008F8888888700000A2
:10243000203F202020110E00C03008080808380076
:10244000071820202010080008F808080810E000ED
:10245000203F202020100F0008F88888E80810008E
:10246000203F20202320180008F88888E808100062
:10247000203F200003000000C0300808083800009A
:1024800007182020221E020008F808000008F8089B
:10249000203F210101213F20000808F80808000022
:1024A0000020203F2020000000000808F808080055
:1024B000C08080807F00000008F888C028180800CD
:1024C000203F20012638200008F808000000000006
:1024D000203F20202020300008F8F800F8F80800FD
:1024E000203F003F003F200008F830C00008F808F7
:1024F000203F200007183F00E01008080810E00007
:102500000F10202020100F0008F808080808F0001D
:10251000203F210101010000E01008080810E00040
:102520000F18242438504F0008F8888888887000D5
:10253000203F2000030C3020007088080808380075
:102540000038202121221C00180808F8080818006B
:102550000000203F2000000008F808000008F808EC
:10256000001F202020201F000878880000C838089D
:10257000000007380E010000F80800F80008F80015
:10258000033C0700073C03000818688080681808AF
:1025900020302C03032C30200838C800C83808002D
:1025A0000000203F2000000010080808C83808007C
:1025B0002038262120201800000000FE0202020020
:1025C0000000007F40404000000C30C000000000D0
:1025D000000000010638C00000020202FE000000F8
:1025E000004040407F00000000000402020204009E
:1025F00000000000000000000000000000000000DB
:1026000080808080808080800002020400000000C2
:1026100000000000000000000000808080800000BA
:102620000019242222223F2008F8008080000000A8
:10263000003F112020110E0000000080808000006B
:10264000000E112020201100000000808088F8007A
:10265000000E112020103F200000808080800000AC
:10266000001F222222221300008080F08888881810
:102670000020203F2020000000008080808080001B
:10268000006B94949493600008F8008080800000B0
:10269000203F210000203F2000809898000000008B
:1026A0000020203F202000000000008098980000BB
:1026B00000C08080807F000008F8000080808000DB
:1026C000203F24022D302000000808F80000000000
:1026D0000020203F202000008080808080808000BB
:1026E000203F20003F20003F80800080808000004D
:1026F000203F210000203F200000808080800000DB
:10270000001F202020201F0080800080800000000B
:1027100080FFA12020110E0000000080808080003A
:10272000000E112020A0FF8080808000808080002B
:1027300020203F2120000100000080808080800058
:102740000033242424241900008080E080800000CD
:102750000000001F2020000080800000008080001A
:10276000001F202020103F2080808000008080807B
:1027700000010E300806010080800080008080800B
:102780000F300C030C300F00008080008080800030
:102790000020312E0E31200080808000008080805B
:1027A00080818E701806010000808080808080000B
:1027B0000021302C2221300000000000807C020229
:1027C00000000000003F404000000000FF0000004B
:1027D00000000000FF0000000002027C80000000FA
:1027E0000040403F00000000000601010202040416
:1027F0000000000000000000802080208810880871
:10280000880488028801FFFF8801880288048808FC
:102810008810802080200000000008204810880CCC
:102820000803C80438180000900010431080FF7F90
:10283000100010001000000040907C8E40407F4F40
:102840004820481E4080F24F12201A18D607121056
:102850001220F24F02800000000180006000F8FFAB
:1028600007000000040024F9244925492649244989
:10287000244924F904000000800080008000BE0686
:10288000A205A204A204A204A244A284A244BE3CC3
:10289000800080008000000000020002244224E248
:1028A0002452244A2446FC432242224222522362DA
:1028B00022C20002000200000081408130411E213E
:1028C0001011100D1003FF011003100D1011102135
:1028D0001041008100810000200110012C01E77FE0
:1028E000242124110080E24F2C202010BF0F201043
:1028F0002820E64F0080000010800C404420441E39
:10290000442044404540C67F4444444444444444F5
:10291000444414400C40000020801060EC1F270944
:10292000F43F2C89E0FF0000220A92090E09D2FF31
:1029300022091E0900080000200110012C01E77F78
:10294000242124110080E24F2C202010BF0F2010E2
:102950002820E64F0080000000000000F81F8808D3
:10296000880888088808FF7F8888888888888888F9
:10297000F89F008000F00000200020802080BEAF83
:10298000AAAAAAAAAAAAAAFFAAAAAAAAAAAABEAF39
:102990002080208020000000000180006000F8FFFF
:1029A00007000000FCFF844084208400FE41828EEA
:1029B0008330824080F800008020802088108808C2
:1029C000880488028801FFFF88018802880488083B
:1029D000881080208020000010041003D000FFFF2A
:1029E00090005041204450584C41434E4C60505848
:1029F000204740404040000010046004027E8C01EB
:102A00000080FE470230F20F0210FE270000F84758
:102A10000080FF7F00000000424062C452444A44EC
:102A2000C67F422452246224C2200000F80F0040D6
:102A30000080FF7F00000000020002000200020090
:102A400002000200020002000200FE03400CA0107F
:102A50001021084200F0000010041003D000FFFF16
:102A6000900010830060FE1F020002000200FE3F83
:102A70000040004000780000000008204810880C4A
:102A80000803C80438180000900010431080FF7F2E
:102A9000100010001000000040907C8E40407F4FDE
:102AA0004820481E4080F24F12201A18D6071210F4
:102AB0001220F24F0280000000000000F00F10040E
:102AC000100410041004FFFF10041004100410047C
:102AD000F00F000000000000000008204810880CE3
:102AE0000803C80438180000900010431080FF7FCE
:102AF000100010001000000040907C8E40407F4F7E
:102B00004820481E4080F24F12201A18D607121093
:102B10001220F24F0280000010000C810481244139
:102B20002431240F250126012401247F24812481BE
:102B3000048114F10C00000000800060F81F880080
:102B400088108820881F08800840FF21081609186F
:102B50000A26C84108F8000008200810084808465E
:102B6000884178410F410841087F084108410841E8
:102B70000841084008400000400040804240CC3FEF
:102B8000004000804A8132BD22A12AA1F1BF21A1CB
:102B900031A12DBD0081000000880066FC01040009
:102BA000D463548254825492D4AB04847F8284C10F
:102BB000C502362404CF0000004000400040004021
:102BC00000400040FF7F4040404040404040404087
:102BD0004040004000400000100410441082FF7F7D
:102BE000100150002000F8FF4F2248224922FA3FEE
:102BF0004822482208200000400040404220CC1FCC
:102C0000002080408850884CFF4388408840FF5F08
:102C10008840884080400000000210018800C4FF06
:102C2000330000004000420042404280C27F420028
:102C30004200420040000000000008204810880CBC
:102C40000803C80438180000900010431080FF7F6C
:102C5000100010001000000040907C8E40407F4F1C
:102C60004820481E4080F24F12201A18D607121032
:102C70001220F24F02800000082008100848084681
:102C8000884178410F410841087F084108410841C7
:102C90000841084008400000400040804240CC3FCE
:102CA000004000804A8132BD22A12AA1F1BF21A1AA
:102CB00031A12DBD0081000000880066FC010400E8
:102CC000D463548254825492D4AB04847F8284C1EE
:102CD000C502362404CF00000200020002000200F8
:102CE00002000200FEFF0200020042008200020118
:102CF0000206020002000000100210421081FF7F55
:102D00009000404010409041105E114016401070FD
:102D1000104ED0411040000010000C81048124416D
:102D20002431240F250126012401247F24812481BC
:102D3000048114F10C00000000800060F81F88007E
:102D400088108820881F08800840FF21081609186D
:102D50000A26C84108F80000000008204810880C26
:102D60000803C80438180000900010431080FF7F4B
:102D7000100010001000000040907C8E40407F4FFB
:102D80004820481E4080F24F12201A18D607121011
:102D90001220F24F0280000040004200CC7F002051
:102DA0000010440054FF541554157F155455549584
:102DB000547F44004000000010041003D000FFFFC7
:102DC00090005041204450584C41434E4C60505864
:102DD0002047404040400000404044402440A45F21
:102DE000944A8C4A844AFF4A844A8C4A944AA45F93
:102DF0002440444040400000020002000200020063
:102E000002000200020002000200FE03400CA010BB
:102E10001021084200F0000010041003D000FFFF52
:102E2000900010830060FE1F020002000200FE3FBF
:102E300000400040007800000081004100217F1D1B
:102E400049214941498149FF4989498949897F89FE
:102E5000008900810081000000010201820082FCE3
:102E6000424422441244FA4506442244224442FC8D
:102E70004200820000010000800082808240823097
:102E8000FE0F82008200820082008200FEFF82002C
:102E9000820082008000000010041003D000FFFFB9
:102EA000900010830060FE1F020002000200FE3F3F
:102EB000004000400078000000000000005800388A
:102EC0000000000000000000000000000000000002
:102ED000000000000000000008000820C867482427
:102EE00048244814C89708900840FF21081608187D
:102EF0000926CA4108F80000400040804240CC3F0B
:102F0000004000804A8132BD22A12AA1F1BF21A147
:102F100031A12DBD00810000100210421081FF7F01
:102F20009000204098404842284209420E7E2842A4
:102F30004842A84218400000800880089EF49294FD
:102F4000929292929EF1E00080019EF2B292D2940F
:102F500092949EF880080000104010401450D457FE
:102F6000545554555455FC7F525552555255D357CC
:102F70001250104010400000004000200018FC07D4
:102F8000440044FC4444454446444444444444448A
:102F900044447CFC00000000B82F00080000002022
:102FA0005C00000028010008143000085C000020CC
:102FB000840600004401000800A24A04000000004A
:102FC00000000000010203040607080900000000D9
:102FD00000000000000000000000000000000000F1
:102FE00000000000000000000000000000000000E1
:102FF00000000100001F2E3D4C5B0500000000009A
:10300000000000000102030401020304060708098E
:0430100002040608A8
:04000005080000ED02
:00000001FF
